:020000040000FA
:1000000018F09FE518F09FE518F09FE518F09FE5C0
:1000100018F09FE50000A0E1F0FF1FE518F09FE554
:10002000540000004000000058030000440000009D
:1000300048000000000000004C00000050000000DC
:10004000FEFFFFEAFEFFFFEAFEFFFFEAFEFFFFEA18
:10005000FEFFFFEAA0009FE5AA10A0E35520A0E361
:100060002430A0E3043080E50130A0E3003080E5D7
:100070000C1080E50C2080E5083090E5013B13E290
:10008000FCFFFF0A0330A0E3003080E50C1080E5A0
:100090000C2080E564009FE50410A0E3041080E5D7
:1000A0000210A0E3001080E554009FE5DBF021E39F
:1000B00000D0A0E1000040E2D7F021E300D0A0E1B1
:1000C000000040E2D1F021E300D0A0E1000040E2D6
:1000D000D2F021E300D0A0E1800040E2D3F021E3A0
:1000E00000D0A0E1080040E210F021E300D0A0E140
:1000F00001AB4DE20C009FE510FF2FE180C01FE037
:1001000000C01FE0D00F00400C010000000000EB19
:100110002E0000EB2C008FE2000C90E800A08AE09B
:1001200000B08BE001704AE20B005AE10000001AB7
:10013000260000EB0F00BAE818E04FE2010013E3DD
:1001400003F0471013FF2FE1C40F0000E40F00007D
:10015000102052E27800B0287800A128FBFFFF8A27
:10016000822EB0E13000B0283000A1280040904538
:10017000004081451EFF2FE10030B0E30040B0E3B6
:100180000050B0E30060B0E3102052E27800A128F4
:10019000FCFFFF8A822EB0E13000A12800308145AB
:1001A0001EFF2FE101C08FE21CFF2FE11FB5059854
:1001B00086460FBC009C02B07047000001C08FE271
:1001C0001CFF2FE130B47546AE4630BC70470000CE
:1001D0001E0100EB0210A0E1F1FFFFEB1CC09FE548
:1001E0000FC08CE001001CE30DE08F120FE0A001B6
:1001F0001CFF2FE101C08FE21CFF2FE100F058FA35
:10020000100400007847C04603002DE9EAFFFFEB29
:100210000300BDE8280100EB65C08FE21CFF2FE161
:100220007847C04600C00FE19FF021E30030D1E5E0
:10023000000053E10600000A013083E20030C1E50E
:100240000030D2E5013083E2000053E10030A0032A
:10025000930042E10CF021E11EFF2FE17847C046F8
:1002600000C00FE19FF021E30030D0E5013043E210
:100270000030C0E50CF021E11EFF2FE1C06A854689
:10028000704700006B4607B40648036006480749FC
:100290007847C04600200FE10F2002E20020C1E5B0
:1002A00010FF2FE118000040450E00001C00004028
:1002B0008446034B1B680C3B07CB002360470000C0
:1002C0001800004003002DE900204DE900104FE127
:1002D00001001DE904E04EE2024020E9004040E94F
:1002E000040040E2FC1F20E90C00BDE80C0020E9FE
:1002F0000040A0E19FF021E35C001FE500D090E505
:100300003C009FE50FE0A0E110FF2FE134009FE5E6
:100310000410D0E50510C0E50010A0E30410C0E50E
:100320001FF021E30400A0E11C109FE511FF2FE165
:10033000040007487847C04693F021E310E09FE5AA
:1003400010FF2FE1B1040000200000402D0F00003D
:10035000CD0400009C03000000C04FE120001CE31E
:10036000B2C05E11FFCCCC1304C01E05FFC4CC0389
:1003700000005CE31C00001A00204DE998309FE566
:1003800002001DE900C04FE1F05F21E9003093E574
:1003900013FF2FE17847C0460040A0E12C0094E510
:1003A0002610D4E5000051E30500001AF00FB0E874
:1003B0000240B0E801000DE900205DE901F06FE1C5
:1003C0000EF0B0E1401080E202000DE900205DE98E
:1003D000381090E534E080E20040DEE801F06FE1A3
:1003E000FF1F1EE908E09EE50EF0B0E100412DE997
:1003F00028809FE5008098E508005CE1FEFFFF2A69
:1004000014809FE50CC198E700804FE10FE0A0E168
:100410001CFF2FE108F06FE10081FDE8D806000025
:10042000D40600000C009FE50C109FE504209FE51A
:1004300008309FE51EFF2FE1480B0040480F0040A9
:10044000480B00407847C0460000A0E1FEFFFFEAED
:100450001EFF2FE10000A0E1FEFFFFEA03002DE9EF
:100460000000A0E3D00F00E50300BDE804F05EE269
:10047000344935488161032141610121416033489C
:100480003349486333483449C86334492420C86336
:100490007047C0462E491020886170472A488068FE
:1004A0007047C04628480068C007C00F7047C04664
:1004B00025490120086026481021C16100220263FD
:1004C000416170472249102048617047204910203F
:1004D0000861704710B500F0FFFD002807D06021CB
:1004E00048431F494018603810BC08BC18471D48D5
:1004F000FAE7C0461C4A10B551680300082900D32A
:10050000FEE71A4C08010019491C1860516000F000
:10051000FDFA0120E8E7C04610B5040000F0DCFD5C
:100520000028E1D01249206800F07AFBDCE7C046E1
:1005300010B5040000F0D0FD0028D5D0206800F0F0
:10054000FDFAD1E7EF490200004000E05C04000042
:1005500000F0FFFFC402000000F1FFFF00F2FFFF08
:10056000BC070040E40A004000000040FC090040D5
:10057000FFFF00000000A0E1B4009FE5000090E54F
:100580000110A0E3A00611E10300001A0209A0E394
:100590009C109FE50C0081E5F6FFFFEA0209A0E34D
:1005A0008C109FE5040081E5F2FFFFEA0030A0E334
:1005B0000320A0E10210A0E34C004FE29F0200EBF9
:1005C00070109FE5000081E50000A0E10109A0E3B3
:1005D0005C109FE50C0081E56400A0E3CB0000EB1C
:1005E0000109A0E348109FE5040081E56400A0E351
:1005F000C60000EBF4FFFFEA10402DE90309A0E379
:100600002C109FE5080081E5C000C1E1080090E5DD
:10061000020AC0E3080081E50020A0E30210A0E187
:100620007C004FE2FBFEFFEB0000A0E31040BDE8C2
:100630001EFF2FE1008002E00C00004000009FE55B
:100640001EFF2FE1E40A004070477047704700002A
:100650000E50A0E1F8FFFFEB05E0A0E10050B0E193
:100660000D10A0E10A30A0E10700C0E300D0A0E136
:1006700060D08DE220402DE969FFFFEB2040BDE80E
:100680000060A0E30070A0E30080A0E300B0A0E35E
:100690000710C1E305C0A0E1C009ACE8C009ACE89F
:1006A000C009ACE8C009ACE801D0A0E11EFF2FE111
:1006B0000400C046C0462000FFF7A4FD01C08FE241
:1006C0001CFF2FE101491820ABDFFEE726000200E6
:1006D0001EFF2FE108000000090700003D07000091
:1006E0004B070000630700006B070000C504000013
:1006F00073070000750700007847C04654FFFFEA03
:100700007847C04651FFFFEA0B4D040028680028D7
:1007100006D0C162002220308271080000F07AFB0E
:1007200002202C606070E078C046C046FFF7CEFE25
:100730002000FFF72FFE00001000004001000068BD
:10074000002801D002680A607047814202D34268E3
:100750008A4201D80120704702680A6001600020C7
:1007600070470188491C018070470188491E01803B
:1007700070477047704710B4002A06DA52005208DA
:10078000D21DD308DB00102203E0D21C93089B008B
:100790000C22002B02D09C188C4202D9012010BCE4
:1007A00070474118041D0AC48218C91A0260D01883
:1007B000884202D810600200F9E700201060EEE7DE
:1007C00070B50D00002816D00C490D4C884203D29C
:1007D0000100206800F066FA206800214570203092
:1007E0004171084800F0CCF800DF206820304079E3
:1007F00070BC08BC18470120FAE70000FFFF0000AA
:1008000010000040B40A00400F4910B50D484A6876
:100810000E4903680968934203D00260C2885218E7
:10082000828082880904090C8A4208D10021016073
:10083000054800F0A5F80100034800F05BFA10BC81
:1008400008BC184728000040B40A004014000040CB
:1008500070B51C4DE868002831D0A88A401E0026DB
:10086000A88226E0A068002808D06168416060681E
:10087000002802D0A16881606660A660114821004E
:10088000183800F037FAA08AA8826078042804D1CA
:100890000D49E08A09884018A08201202521607056
:1008A0000855E068E860E068002801D00561E6606E
:1008B0002661A88A002802D1EC68002CD2D170BC35
:1008C00008BC1847CC0A00401400004070B5040072
:1008D0000FD00D4DA17828680126827891420DD95C
:1008E00000F028FA28684670200000DF70BC08BCC1
:1008F0001847064800F044F800DFF7E703482100F6
:10090000667000F0F7F9F1E710000040B40A00400B
:1009100001C08FE21CFF2FE110B5040005DF0321A9
:100920002000FFF74DFFFFF7D1FD10BC08BC1847B2
:1009300010B50400008B084320836278618B062A7F
:1009400017D0052A12D10A0010420FD0024062834C
:1009500088432083200000F011FA012060700221FA
:10096000252001550548210000F0C4F910BC08BC41
:1009700018470A008243EBD0F8E70000B40A0040B1
:1009800001004068002243684B600B78022B05D0C1
:10099000012B03D0032B01D0426070474368002B2A
:1009A00001D09960426082607047000070B5040019
:1009B0001600002001222070250062702035A170F1
:1009C00029716060A060E06020612062A082E08206
:1009D000208360836871AB71208D002802D10548A7
:1009E00001DF20633100200000F012F870BC08BC69
:1009F00018470000980100400348002101600349A6
:100A00000988491EC180704728000040F01000008E
:100A100030B4028D920803D1164A12881204920C47
:100A2000036B92009A18530700D5121F26231B5CF4
:100A3000002B18D0104B403AD1631B78002B01D00B
:100A40000E4B01E00D4B0F3BCC07936302D02024EB
:100A500023439363C5690123002415609D005B1C3B
:100A60000E2B5451FAD3C26241630549006B0160F9
:100A700030BC7047EC1000001C0000401F0000401C
:100A8000A52E5AE270B5040040680D00002600282B
:100A900005D06078022819D0A08900281ED0A0892E
:100AA000E18988422CD2208980000019056120004C
:100AB0000C3003DF2089401C0004000C2081E189F8
:100AC000884200D1268170BC08BC1847200066709F
:100AD000FFF756FF04002030467107E02000FFF7C3
:100AE0004FFF04000421C561203041710120607076
:100AF000200000F043F90448210000F0FBF8E2E791
:100B00000320FFF7F9FDDEE7B40A004070B50A4D97
:100B100004002868002800D005DF03202070002092
:100B200060806060A060E0602868002801D0FFF766
:100B3000CDFC70BC08BC184710000040F8B504009C
:100B400005DF6088002804D0334DA1682A689142EF
:100B500005D0FFF7BBFCFF20F8BC08BC1847401EBF
:100B60000004000C608052D12968086AA04209D1B3
:100B7000E068086208E0C268A24202D1E268C2608E
:100B800002E010000028F6D12420405C0A6A07E049
:100B90005368002B03D09B78834200D91800D26899
:100BA000002AF5D1887062680127002A22D020002F
:100BB000FFF7E6FE0600052120304171300000F00D
:100BC000DDF86780A660306AE06014483462296806
:100BD00040688A788078824201D3300015E00F485F
:100BE00000F088F80D48310000F084F8286847705C
:100BF000777009E0094A52689278824207D907481B
:100C000000F078F8286847700020FFF75FFEFFF7D4
:100C10005DFC0020A0E7000010000040B40A004086
:100C200070B50E00040005DF60881D4D00280CD053
:100C3000A068296888420ED16088401C6080FFF758
:100C400045FC002070BC08BC18472868A060016AF9
:100C5000E1600462F0E7002E1ED0827889788A4233
:100C600003D28170A06800F06FF86068002804D09B
:100C70002968200000F03EF804E028680021606048
:100C8000001D12C009213000FFF79AFD012803D092
:100C9000FFF71CFC0520D5E7FFF718FC0120D1E782
:100CA00010000040124A10B4D368002B18D0130073
:100CB0009B8A04E0002C13D02200A48AE318D46895
:100CC0008B42F7D3C460D0600261C468002C00D0AE
:100CD0002061591A8182908A401A908210BC704714
:100CE0000024C460D060C91A026191828482F5E751
:100CF000CC0A004030B402780023022A03D0012A33
:100D000001D0032A00D101238C7800E01000426852
:100D1000002A02D09578A542F8D24A60002B4160A3
:100D200005D0002A00D09160886030BC7047002058
:100D3000FAE70000034900234A6883604260486084
:100D400070470000B40A004010B583680400002B0F
:100D500005D1607801280CD1074B03E09B68187817
:100D60000028FBD0200000F01FF821001800FFF73A
:100D7000C1FF10BC08BC1847B40A004010B4016998
:100D800000290FD0C3680022CB60C368002B07D0B6
:100D90008B8A848A1B198B82C3681961C26000E048
:100DA0008A82026110BC70478168002907D04268BE
:100DB0004A604168002901D0806888607047064910
:100DC00006E04A68824202D14068486070471100DC
:100DD0000029F6D170470000B40A004010B5416800
:100DE000002910D0FFF7CCFD0400FFF7C7FF01205A
:100DF000607003212520015505482100FFF77AFF87
:100E000010BC08BC18474188491C4180F8E7000025
:100E1000B40A004010B5002800D1684607490968A7
:100E2000096B814203D808680549884202D0012035
:100E3000FFF762FC10BC08BC18470000100000401F
:100E4000A52E5AE2C046C04605DF00202649274AA3
:100E5000040002E08300401CCC5013889842F9D370
:100E60002348382201882348FFF785FC22480121C6
:100E70000088C9070004000C421820480168204877
:100E8000FFF779FC1F48082201881F480068FFF718
:100E900072FC1E4DFF20E87000231D4A1900280037
:100EA0002C85FFF783FD1B480421017044601A481C
:100EB0000170C460046184822800FFF7DFF91748DD
:100EC000184905600220687015480470447009785C
:100ED000C170FFF7CDFAFFF78FFD1348FFF7E8F970
:100EE000FFF7B0FAFEE70000A4070040E81000009A
:100EF000FC10000038000040EC1000000011000061
:100F00009801004006110000000000407C0A0040EB
:100F100048040000B40A0040CC0A00401000004021
:100F20002007004004110000491000002E4E01006F
:100F300030682622C1620121115400274170FFF759
:100F4000F9FE2A4C6079002808D0FFF7A7FA21683B
:100F500088420ED2FFF7A6FA00280AD1C046C04642
:100F6000FFF752FC22480168491C0160FFF770FC42
:100F70000127002060711F4C657811E0E80001191D
:100F800048680278002A12D0012A16D0FFF726FFFF
:100F9000E0786D1C854200D10025A01CFFF75EF9AA
:100FA000A0780028EAD1012F65700AD00BE00989EA
:100FB0000904090CFFF7BCFCEAE78968FFF762FD4A
:100FC000E6E700F01BF83068C06AFFF723FF0A4825
:100FD000FFF7D6FC022130604170C078C046C046A1
:100FE0003068FFF7A5F90000100000402000004025
:100FF0001400004020070040B40A004070B50E4CB9
:101000002068002814D0A0880C4E401EA08009E063
:10101000E888FFF775FBA8882900A0802868206071
:10102000306802DFA088002802D12568002DEFD1AA
:1010300070BC08BC184700003000004000000040B1
:1010400001C08FE21CFF2FE1FFB51E0017000D004D
:1010500081B005DF280600D16D1C1C4801DF0400AB
:101060000FD02802000C276320852906E661019A2B
:10107000090E01232000FFF799FC1549154A0120AC
:101080000DE0FFF723FA002005B0F0BC08BC1847BC
:1010900083005B18403BDB6B002B10D0401C138897
:1010A0009842F5D9E178606BFF310131C046C04606
:1010B0002000FFF70BFCFFF709FAE078E4E7830074
:1010C00059184039CC63E070ECE70000380000406C
:1010D000A4070040E810000002480068002800D083
:1010E000C07870471000004006000000C8000001F2
:1010F0000500010010270000000000005C01000056
:101100008805000010000000490004002C110000B8
:101110000000004038000000500100006411000091
:1011200038000040980F0000780100000000000027
:1011300000000000000000000000000000000000AF
:10114000000000000000000000000000000000009F
:10115000000000000000000000000000000000008F
:04116000000000008B
:040000050000010CEA
:00000001FF
